{
  "_format": "hh-sol-artifact-1",
  "contractName": "Raffle",
  "sourceName": "contracts/Raffle.sol",
  "abi": [
    {
      "anonymous": false,
      "inputs": [
        {
          "indexed": true,
          "internalType": "address",
          "name": "previousOwner",
          "type": "address"
        },
        {
          "indexed": true,
          "internalType": "address",
          "name": "newOwner",
          "type": "address"
        }
      ],
      "name": "OwnershipTransferred",
      "type": "event"
    },
    {
      "inputs": [
        {
          "internalType": "uint256",
          "name": "",
          "type": "uint256"
        }
      ],
      "name": "address_list",
      "outputs": [
        {
          "internalType": "address",
          "name": "",
          "type": "address"
        }
      ],
      "stateMutability": "view",
      "type": "function"
    },
    {
      "inputs": [],
      "name": "all_registered",
      "outputs": [
        {
          "internalType": "address[]",
          "name": "",
          "type": "address[]"
        }
      ],
      "stateMutability": "view",
      "type": "function"
    },
    {
      "inputs": [],
      "name": "owner",
      "outputs": [
        {
          "internalType": "address",
          "name": "",
          "type": "address"
        }
      ],
      "stateMutability": "view",
      "type": "function"
    },
    {
      "inputs": [
        {
          "internalType": "uint256",
          "name": "_mint_number",
          "type": "uint256"
        }
      ],
      "name": "register",
      "outputs": [],
      "stateMutability": "nonpayable",
      "type": "function"
    },
    {
      "inputs": [],
      "name": "registered_slot",
      "outputs": [
        {
          "internalType": "uint256",
          "name": "",
          "type": "uint256"
        }
      ],
      "stateMutability": "view",
      "type": "function"
    },
    {
      "inputs": [],
      "name": "renounceOwnership",
      "outputs": [],
      "stateMutability": "nonpayable",
      "type": "function"
    },
    {
      "inputs": [
        {
          "internalType": "address",
          "name": "newOwner",
          "type": "address"
        }
      ],
      "name": "transferOwnership",
      "outputs": [],
      "stateMutability": "nonpayable",
      "type": "function"
    }
  ],
  "bytecode": "0x608060405234801561001057600080fd5b5061002d61002261003260201b60201c565b61003a60201b60201c565b6100fe565b600033905090565b60008060009054906101000a900473ffffffffffffffffffffffffffffffffffffffff169050816000806101000a81548173ffffffffffffffffffffffffffffffffffffffff021916908373ffffffffffffffffffffffffffffffffffffffff1602179055508173ffffffffffffffffffffffffffffffffffffffff168173ffffffffffffffffffffffffffffffffffffffff167f8be0079c531659141344cd1fd0a4f28419497f9722a3daafe3b4186f6b6457e060405160405180910390a35050565b610c378061010d6000396000f3fe608060405234801561001057600080fd5b506004361061007d5760003560e01c8063b01cd2191161005b578063b01cd219146100da578063bab766cf146100f8578063f207564e14610116578063f2fde38b146101325761007d565b8063715018a6146100825780638da5cb5b1461008c5780639aa5b6c4146100aa575b600080fd5b61008a61014e565b005b6100946101d6565b6040516100a19190610a14565b60405180910390f35b6100c460048036038101906100bf9190610869565b6101ff565b6040516100d19190610a14565b60405180910390f35b6100e261023e565b6040516100ef9190610a2f565b60405180910390f35b610100610386565b60405161010d9190610ae3565b60405180910390f35b610130600480360381019061012b9190610869565b61040b565b005b61014c60048036038101906101479190610840565b6104f4565b005b6101566105ec565b73ffffffffffffffffffffffffffffffffffffffff166101746101d6565b73ffffffffffffffffffffffffffffffffffffffff16146101ca576040517f08c379a00000000000000000000000000000000000000000000000000000000081526004016101c190610ac3565b60405180910390fd5b6101d460006105f4565b565b60008060009054906101000a900473ffffffffffffffffffffffffffffffffffffffff16905090565b6002818154811061020f57600080fd5b906000526020600020016000915054906101000a900473ffffffffffffffffffffffffffffffffffffffff1681565b60606102486105ec565b73ffffffffffffffffffffffffffffffffffffffff166102666101d6565b73ffffffffffffffffffffffffffffffffffffffff16146102bc576040517f08c379a00000000000000000000000000000000000000000000000000000000081526004016102b390610ac3565b60405180910390fd5b6102fa6040518060400160405280601c81526020017f436865636b20616c6c20726567697374657265642061646472657373000000008152506106b8565b600280548060200260200160405190810160405280929190818152602001828054801561037c57602002820191906000526020600020905b8160009054906101000a900473ffffffffffffffffffffffffffffffffffffffff1673ffffffffffffffffffffffffffffffffffffffff1681526020019060010190808311610332575b5050505050905090565b60006103c66040518060400160405280601581526020017f436865636b207265676973746572656420736c6f7400000000000000000000008152506106b8565b600160003373ffffffffffffffffffffffffffffffffffffffff1673ffffffffffffffffffffffffffffffffffffffff16815260200190815260200160002054905090565b61044a6040518060400160405280601681526020017f526567697374657220666f72206120736c6f74206f660000000000000000000081525082610751565b6002339080600181540180825580915050600190039060005260206000200160009091909190916101000a81548173ffffffffffffffffffffffffffffffffffffffff021916908373ffffffffffffffffffffffffffffffffffffffff16021790555080600160003373ffffffffffffffffffffffffffffffffffffffff1673ffffffffffffffffffffffffffffffffffffffff1681526020019081526020016000208190555050565b6104fc6105ec565b73ffffffffffffffffffffffffffffffffffffffff1661051a6101d6565b73ffffffffffffffffffffffffffffffffffffffff1614610570576040517f08c379a000000000000000000000000000000000000000000000000000000000815260040161056790610ac3565b60405180910390fd5b600073ffffffffffffffffffffffffffffffffffffffff168173ffffffffffffffffffffffffffffffffffffffff1614156105e0576040517f08c379a00000000000000000000000000000000000000000000000000000000081526004016105d790610aa3565b60405180910390fd5b6105e9816105f4565b50565b600033905090565b60008060009054906101000a900473ffffffffffffffffffffffffffffffffffffffff169050816000806101000a81548173ffffffffffffffffffffffffffffffffffffffff021916908373ffffffffffffffffffffffffffffffffffffffff1602179055508173ffffffffffffffffffffffffffffffffffffffff168173ffffffffffffffffffffffffffffffffffffffff167f8be0079c531659141344cd1fd0a4f28419497f9722a3daafe3b4186f6b6457e060405160405180910390a35050565b61074e816040516024016106cc9190610a51565b6040516020818303038152906040527f41304fac000000000000000000000000000000000000000000000000000000007bffffffffffffffffffffffffffffffffffffffffffffffffffffffff19166020820180517bffffffffffffffffffffffffffffffffffffffffffffffffffffffff83818316178352505050506107ed565b50565b6107e98282604051602401610767929190610a73565b6040516020818303038152906040527f9710a9d0000000000000000000000000000000000000000000000000000000007bffffffffffffffffffffffffffffffffffffffffffffffffffffffff19166020820180517bffffffffffffffffffffffffffffffffffffffffffffffffffffffff83818316178352505050506107ed565b5050565b60008151905060006a636f6e736f6c652e6c6f679050602083016000808483855afa5050505050565b60008135905061082581610bd3565b92915050565b60008135905061083a81610bea565b92915050565b60006020828403121561085257600080fd5b600061086084828501610816565b91505092915050565b60006020828403121561087b57600080fd5b60006108898482850161082b565b91505092915050565b600061089e83836108aa565b60208301905092915050565b6108b381610b53565b82525050565b6108c281610b53565b82525050565b60006108d382610b0e565b6108dd8185610b31565b93506108e883610afe565b8060005b838110156109195781516109008882610892565b975061090b83610b24565b9250506001810190506108ec565b5085935050505092915050565b600061093182610b19565b61093b8185610b42565b935061094b818560208601610b8f565b61095481610bc2565b840191505092915050565b600061096c602683610b42565b91507f4f776e61626c653a206e6577206f776e657220697320746865207a65726f206160008301527f64647265737300000000000000000000000000000000000000000000000000006020830152604082019050919050565b60006109d2602083610b42565b91507f4f776e61626c653a2063616c6c6572206973206e6f7420746865206f776e65726000830152602082019050919050565b610a0e81610b85565b82525050565b6000602082019050610a2960008301846108b9565b92915050565b60006020820190508181036000830152610a4981846108c8565b905092915050565b60006020820190508181036000830152610a6b8184610926565b905092915050565b60006040820190508181036000830152610a8d8185610926565b9050610a9c6020830184610a05565b9392505050565b60006020820190508181036000830152610abc8161095f565b9050919050565b60006020820190508181036000830152610adc816109c5565b9050919050565b6000602082019050610af86000830184610a05565b92915050565b6000819050602082019050919050565b600081519050919050565b600081519050919050565b6000602082019050919050565b600082825260208201905092915050565b600082825260208201905092915050565b6000610b5e82610b65565b9050919050565b600073ffffffffffffffffffffffffffffffffffffffff82169050919050565b6000819050919050565b60005b83811015610bad578082015181840152602081019050610b92565b83811115610bbc576000848401525b50505050565b6000601f19601f8301169050919050565b610bdc81610b53565b8114610be757600080fd5b50565b610bf381610b85565b8114610bfe57600080fd5b5056fea26469706673582212209dca1036987818610a49dbb2fa691647ecafb9a8c038dfd59b09846a71ad636b64736f6c63430008000033",
  "linkReferences": {},
  "deployedLinkReferences": {}
}